S013000048616E6450726F6A6563742E73726563BF
S113000071C000008EC000008CC000008AC00000D7
S113001088C0000086C0000084C0000082C00000C8
S113002080C000007EC000007CC000007AC00000D8
S113003078C0000076C0000074C0000072C00000E8
S113004070C000006EC000006CC000006AC00000F8
S113005068C0000066C0000064C0000062C0000008
S113006060C000005EC000005CC000005AC0000018
S113007058C0000056C0000054C0000052C0000028
S113008050C000004EC000004CC000004AC0000038
S113009048C0000046C0000044C0000042C0000048
S11300A040C000003EC000003CC000003AC0000058
S11300B038C0000036C0000034C0000032C0000068
S11300C030C000002EC000002CC000002AC0000078
S11300D028C0000026C0000024C0000022C0000088
S11300E020C0000011241FBECFEFD1E2DEBFCDBF80
S11300F000E00CBF12E0A0E0B2E0E2EEF5E000E0C8
S11301000BBF02C007900D92AE39B107D9F722E0B8
S1130110AEE9B2E001C01D92AE39B207E1F713D1E6
S11301205EC26ECF60E875E284C10895EF92FF92DB
S11301300F931F93CF93DF937C012FEF81EE94E015
S1130140215080409040E1F700C000000E2D1F2D8B
S113015040E0C701F8D141E065E672E0C701F3D1A0
S1130160F70114AAE701E496FAECEF0EF11C802FD4
S1130170912F9FD1882349F0CE15DF0531F0802FD0
S1130180912FC9D189931982F2CF81E0DF91CF9168
S11301901F910F91FF90EF900895CF93DF93EC019F
S11301A0BC016C5C7F4F41E0CED19CA99923B1F096
S11301B0FE01F5969E0126583F4F03C09191992365
S11301C079F09F3421F480818B3419F40BC09B3473
S11301D059F0E217F30791F780E007C080E005C00B
S11301E080E003C081E001C081E0DF91CF910895F8
S11301F00F931F93CF93DF93CDB7DEB7E2970FB67C
S1130200F894DEBF0FBECDBF8C0188E0E0E0F2E0E1
S1130210DE01119601900D928A95E1F7FE0139965F
S11302208AE2DF011D928A95E9F7CE010896D0D1C2
S1130230BE016F5F7F4FC80179DFC801AEDFE29670
S11302400FB6F894DEBF0FBECDBFDF91CF911F91E3
S11302500F910895CF93DF93EC0168E672E066DFB7
S1130260CE019BDFDF91CF910895EF92FF920F9320
S11302701F93CF93DF937C018B01C0E0D0E0C701D3
S113028029D1882359F0C431D10541F02196C70101
S11302904AD1F80181938F011182F1CF81E01C16BC
S11302A01D060CF080E0DF91CF911F910F91FF901C
S11302B0EF900895CF93DF93EC0160E875E2E8D006
S11302C0CE0130DFDF91CF91089584B5836884BD7A
S11302D0E0E8F0E0808181688083E0E2F1E0808101
S11302E081688083E0E9F0E0808181688083E0EACE
S11302F0F0E080818168808385B5856085BDE1E813
S1130300F0E080818D608083E1E2F1E080818D60A6
S11303108083E1E9F0E080818D608083E1EAF0E0B0
S113032080818D60808387E085BB279A269A259AF1
S1130330EAE0F1E0808188608083E1E0F1E080819F
S1130340806480830895CF93DF93CDB7DEB7C55D16
S1130350D1090FB6F894DEBF0FBECDBFB6DF279A22
S1130360259AEAE0F1E08081886080836B9AE1E07D
S1130370F1E0808188608083CE0101969BDFCE010D
S1130380019668DF6CE872E0CE01019631DF0F2E32
S1130390F8E8AF2EB12CF02D0F2EF8E9CF2ED12C8A
S11303A0F02D0F2EF8EAEF2EF12CF02D08E211E0DB
S11303B0BE0164537F4FCE01019657DF8823C1F3FA
S11303C0C453DF4F8881CC5CD0408A3289F7CE5247
S11303D0DF4F8881C25DD0408A3251F7C353DF4F6B
S11303E08881CD5CD04087BDC253DF4F8881CE5C0D
S11303F0D04090E0F50191838083C153DF4F888121
S1130400CF5CD04090E0F60191838083C053DF4FEE
S11304108881C05DD04090E0F70191838083CF5202
S1130420DF4F8881C15DD04090E0F80191838083E3
S1130430BFCFCB01A0E0B0E0880F991FAA1FBB1F5C
S1130440880F991FAA1FBB1F9C01AD01220F331FE8
S1130450441F551F220F331F441F551F60E074E2D1
S113046084EF90E084D0215031093093C50020936B
S1130470C40098E99093C10086E08093C200309351
S11304803501209334019093310180933201089512
S1130490FC01AB019B01220F232F221F330B31954B
S11304A0ABE6B3E086D082AB13AABA01CF01C1CFC9
S11304B0089588E097E0E0ECF0E02AE62A95F1F769
S11304C000C02081222324F00197B9F780E0089529
S11304D081E0089580913001882394F40DC0208137
S11304E0222364F0A7ECB0E01197F1F700C00000FC
S11304F00197A9F780E0089581E0089581E00895C7
S113050087EC90E00197F1F700C0000081E390E0F0
S1130510E0E3F1E0E4CFE0ECF0E080818823ECF765
S11305208091C6000895E0E3F1E080818823ECF730
S1130530809136010895E0ECF0E0808185FFFDCFE5
S11305406093C60008950F931F93CF93DF93EB013D
S11305506881662339F08C012196C801ECDF69912A
S11305606111FBCFDF91CF911F910F910895A1E20B
S11305701A2EAA1BBB1BFD010DC0AA1FBB1FEE1F19
S1130580FF1FA217B307E407F50720F0A21BB30B64
S1130590E40BF50B661F771F881F991F1A9469F7E0
S11305A060957095809590959B01AC01BD01CF013C
S11305B00895A29FB001B39FC001A39F700D811D38
S11305C01124911DB29F700D811D1124911D089558
S11305D0FB01DC0101900D920020E1F70895F894ED
S10505E0FFCF47
S11305E241542B4E414D4500000000000000000024
S11305F200000000000000000000000000000000F5
S113060200000000000000000000000000000000E4
S1130612000041542B42415544000041542B434FA6
S11306224E41000000000000000000000000000035
S11306320000000041542B50494E0000000000000D
S113064200000000000D0A0041542B524F4C45306B
S11306520041542B524F4C45310041542B4C4144E0
S1130662445200313233343536003F00416D6972F1
S11106725F536C6176655F446576696365006D
S9030000FC
