:100000000C9434000C9451000C9451000C94510049
:100010000C9451000C9451000C9451000C9451001C
:100020000C9451000C9451000C9451000C9451000C
:100030000C9451000C9451000C9451000C945100FC
:100040000C9451000C9451000C9451000C945100EC
:100050000C9451000C9451000C9451000C945100DC
:100060000C9451000C94510011241FBECFEFD8E026
:10007000DEBFCDBF11E0A0E0B1E0E8E4F6E002C0F1
:1000800005900D92AC3AB107D9F721E0ACEAB1E0A6
:1000900001C01D92AC3AB207E1F70E9465010C94D1
:1000A00022030C94000060E875E20E94510208955A
:1000B000EF92FF920F931F93CF93DF937C012FEF6B
:1000C00081EE94E0215080409040E1F700C00000B4
:1000D0000E2D1F2D40E0C7010E94AD0241E065E6F4
:1000E00071E0C7010E94AD02F70114AAE701E4968E
:1000F000FAECEF0EF11C802F912F0E948C028823C6
:1001000051F0CE15DF0539F0802F912F0E949D020E
:1001100089931982F0CF81E0DF91CF911F910F91E8
:10012000FF90EF900895CF93DF93EC01BC016C5CDE
:100130007F4F41E00E94AD029CA99923B1F0FE01DE
:10014000F5969E0126583F4F03C09191992379F06F
:100150009F3421F480818B3419F40BC09B3459F007
:10016000E217F30791F780E007C080E005C080E068
:1001700003C081E001C081E0DF91CF9108950F932A
:100180001F93CF93DF93CDB7DEB7E2970FB6F89406
:10019000DEBF0FBECDBF8C0188E0E0E0F1E0DE0104
:1001A000119601900D928A95E1F7FE0139968AE247
:1001B000DF011D928A95E9F7CE0108960E941B0384
:1001C000BE016F5F7F4FC8010E945800C8010E94A6
:1001D0009300E2960FB6F894DEBF0FBECDBFDF915D
:1001E000CF911F910F910895CF93DF93EC0161E7B9
:1001F00071E00E945800CE010E949300DF91CF91E0
:1002000008950F931F93CF93DF93CDB7DEB7699710
:100210000FB6F894DEBF0FBECDBF8C0188E0EBE3D4
:10022000F1E0DE01119601900D928A95E1F7FE0151
:10023000399681E1DF011D928A95E9F7CE01089692
:100240000E941B03BE016F5F7F4FC8010E945800D0
:10025000C8010E94930069960FB6F894DEBF0FBEE6
:10026000CDBFDF91CF911F910F91089541E00E9482
:10027000AD020895CF93DF93EC0160E875E20E9430
:100280007902CE010E945300DF91CF91089580E45E
:1002900080937C0087E880937A000895ECE7F0E093
:1002A00090819F7D90839081987F8770892B808338
:1002B000EAE7F0E0808180648083808186FDFDCF65
:1002C00080917800909179000895CF93DF93CDB716
:1002D000DEB7C55DD1090FB6F894DEBF0FBECDBF46
:1002E0000E944701CE0101960E943A01CE0101967B
:1002F0000E94F4006CE871E0CE0101960E94BF00FC
:100300006FE971E0CE0101960E9401018AE2CE52AE
:10031000DF4F8883C25DD040C453DF4F8883CC5CFD
:10032000D040CD52DF4F1882C35DD040689477240F
:1003300073F82FEF81EE94E0215080409040E1F778
:1003400000C00000BE0164537F4FCE0101960E94A1
:10035000360181E00E944E015C0182E00E944E0164
:100360006C0183E00E944E017C0184E00E944E01FA
:100370008C0185E00E944E019C014601F701280195
:100380001C018FEFA81681E0B8068CF0C5018E5FC6
:1003900091406EE070E00E94C2026E5F7F4F660F78
:1003A000660FC353DF4F6883CD5CD04005C0C35395
:1003B000DF4F7882CD5CD0409DE2891691E09906AE
:1003C0008CF0C6018C52914068E170E00E94C2023C
:1003D0006E5F7F4F660F660FC253DF4F6883CE5C40
:1003E000D04005C0C253DF4F7882CE5CD040E53BA1
:1003F000F1058CF0C701845B910966E170E00E9411
:10040000C2026E5F7F4F660F660FCF52DF4F688369
:10041000C15DD04005C0CF52DF4F7882C15DD04072
:100420008AEF481681E05806BCF0095F1140C80108
:1004300099230CF40F9695958795959587959595A5
:100440008795959587950296880F880FC053DF4F43
:100450008883C05DD04005C0C053DF4F7882C05D47
:10046000D0409FEF29163104B1F0ACF02F5F310975
:10047000C90199230CF407969595879595958795CD
:10048000959587950296880F880FC153DF4F888313
:10049000CF5CD0404ECFC153DF4F7882CF5CD0408D
:1004A00048CFCB01A0E0B0E0880F991FAA1FBB1F67
:1004B000880F991FAA1FBB1F9C01AD01220F331F7C
:1004C000441F551F220F331F441F551F60E074E265
:1004D00084EF90E00E94D602215031093093C5008C
:1004E0002093C40088E18093C10086E08093C2001D
:1004F0000895FC01AB019B01220F232F221F330B18
:100500003195ABE6B3E00E94F80282AB13AABA01C0
:10051000CF010E945102089588E097E0E0ECF0E0FE
:100520002AE62A95F1F700C02081222324F00197C2
:10053000B9F780E0089581E00895E0ECF0E0808173
:100540008823ECF78091C6000895E0ECF0E080810C
:1005500085FFFDCF6093C60008950F931F93CF933F
:10056000DF93EB016881662341F08C012196C8017D
:100570000E94A50269916111FACFDF91CF911F917D
:100580000F91089597FB072E16F4009407D077FD7E
:1005900009D00E94070307FC05D03EF49095819591
:1005A0009F4F0895709561957F4F0895A1E21A2E8F
:1005B000AA1BBB1BFD010DC0AA1FBB1FEE1FFF1F07
:1005C000A217B307E407F50720F0A21BB30BE40B57
:1005D000F50B661F771F881F991F1A9469F760959E
:1005E0007095809590959B01AC01BD01CF01089558
:1005F000A29FB001B39FC001A39F700D811D112464
:10060000911DB29F700D811D1124911D0895AA1B8B
:10061000BB1B51E107C0AA1FBB1FA617B70710F0ED
:10062000A61BB70B881F991F5A95A9F7809590951F
:10063000BC01CD010895FB01DC0101900D92002069
:08064000E1F70895F894FFCFE3
:1006480041542B4E414D45000000000000000000C1
:100658000000000000000000000000000000000092
:100668000000000000000000000000000000000082
:10067800000041542B42415544000041542B434F44
:100688004E410000000000000000000000000000D3
:100698000000000041542B50494E000000000000AB
:1006A80000000000000D0A0041542B524F4C453009
:1006B8000041542B524F4C45310041542B4C41447E
:1006C800445200313233343536003F00416D69728F
:1006D8005F4D61737465725F446576696365003068
:0C06E800313032303330343141444500B1
:00000001FF
